:100000000C942A000C943C000C943C000C943C0092
:100010000C943C000C943C000C943C000C943E006E
:100020000C943C000C943C000C943C000C943C0060
:100030000C943C000C943C000C943C000C943C0050
:100040000C943C000C943C000C943C000C943C0040
:100050000C943C0011241FBECFE5D4E0DEBFCDBF21
:1000600020E0A0E6B0E001C01D92A236B207E1F7A1
:100070000E949E000C94D2000C9400001F920F92DC
:100080000FB60F9211242F933F934F938F939F930B
:1000900080916000909161008997A8F480EE8ABBFE
:1000A000809160009091610001969093610080932F
:1000B00060008091600090916100873F910529F573
:1000C00082E593E024C080916000909161008C3DB6
:1000D000910520F78091600090916100482F429532
:1000E0004F7080E090E09C0122953295307F32275E
:1000F000207F3227242B2ABB27E02A95F1F7000026
:1001000001968031910579F7C9CF83E490E09BBDDA
:100110008ABD80916000909161008730914021F408
:1001200010926100109260009F918F914F913F91CA
:100130002F910F900FBE0F901F9018958FEF87BBD8
:1001400084BB81BB80EE8ABB8FE08BBB8F9A979874
:1001500083ED9BE80197F1F70000979A85B78F74BC
:1001600085BF85B7806485BF8D9A8FB5826C8FBD42
:100170008EB588618EBD1DBC1CBC83E490E09BBD28
:100180008ABD86E990E099BD88BD8DE893E097BD72
:1001900086BD89B7886089BF8EB581608EBD789431
:0801A0008895FECFF894FFCF13
:00000001FF
