:100000000C942A000C943C000C943C000C943C0092
:100010000C943C000C943C000C9470000C943E003A
:100020000C943C000C943C000C943C000C943C0060
:100030000C943C000C943C000C943C000C943C0050
:100040000C943C000C943C000C943C000C943C0040
:100050000C943C0011241FBECFE5D4E0DEBFCDBF21
:1000600010E0A0E6B0E001C01D92A236B107E1F7B2
:100070000E94AA000C94D4000C9400001F920F92CE
:100080000FB60F9211242F938F939F93809160004E
:10009000909161000196909361008093600080913F
:1000A000600090916100883F910519F482E593E02A
:1000B00002C083E490E09BBD8ABD80916000909176
:1000C00061008730914021F410926100109260002D
:1000D0009F918F912F910F900FBE0F901F901895A9
:1000E0001F920F920FB60F9211242F938F939F930D
:1000F00023E12A95F1F70000809160009091610062
:10010000899718F480EE8ABB1DC0809160009091A1
:1001100061008C3D9105B0F7809160009091610085
:10012000889724E0969587952A95E1F706C08ABBC3
:1001300029E02A95F1F700C040968F3F9105B9F369
:10014000B0F3E0CF9F918F912F910F900FBE0F9042
:100150001F90189580EE8ABB8FE08BBB8F9A979883
:1001600083ED9BE80197F1F70000979A8D9A8FB580
:10017000826C8FBD8EB588618EBD1DBC1CBC8EE3AC
:1001800090E09BBD8ABD81E090E099BD88BD8DE87F
:1001900093E097BD86BD89B7886189BF8EB58160C0
:0C01A0008EBD78948895FECFF894FFCFB8
:00000001FF
