:100000000C942A000C9447000C9447000C94470071
:100010000C9447000C9447000C9447000C94490042
:100020000C9447000C9447000C9447000C94470034
:100030000C9447000C9447000C9447000C94470024
:100040000C9447000C9447000C9447000C94470014
:100050000C94470011241FBECFE5D4E0DEBFCDBF16
:1000600010E0A0E6B0E0E0E2F2E002C005900D9200
:10007000A436B107D9F720E0A4E6B0E001C01D9294
:10008000A536B207E1F70E94DA000C940E010C9439
:1000900000001F920F920FB60F9211242F933F93DF
:1000A0004F938F939F9380916000853160F480EE31
:1000B0008ABB809161009091620087309140D1F4B9
:1000C00086EC91E019C0482F42954F7080E090E097
:1000D0009C0122953295307F3227207F3227242BB6
:1000E0002ABB27E02A95F1F700000196803191059F
:1000F00079F7DDCF8DE893E097BD86BD83E490E08E
:100100009BBD8ABD809161009091620087309140D3
:10011000D9F0809161009091620001969093620005
:100120008093610080916100909162008E309240D6
:1001300018F181E090E0909362008093610084EA7E
:1001400091E09BBD8ABD18C080916400813051F45C
:10015000809161009091620001969093620080937B
:10016000610004C084EA91E09BBD8ABD8091640077
:1001700091E08927809364008091610090916200F2
:10018000809360008091610090916200873091407F
:1001900038F08091610090916200865080936000F9
:1001A0009F918F914F913F912F910F900FBE0F9084
:1001B0001F9018958FEF87BB84BB81BB80EE8ABBF5
:1001C0008FE08BBB8F9A979883ED9BE80197F1F7AF
:1001D0000000979A85B78F7485BF85B7806485BF07
:1001E0008D9A8FB5826C8FBD8EB588618EBD1DBC1A
:1001F0001CBC83E490E09BBD8ABD86E990E099BD7C
:1002000088BD8DE893E097BD86BD89B7886089BFBA
:100210008EB581608EBD78948895FECFF894FFCF1F
:0402200001010000D8
:00000001FF
