:100000000C942A000C943C000C943C000C943C0092
:100010000C943C000C943C000C9470000C943E003A
:100020000C943C000C943C000C943C000C943C0060
:100030000C943C000C943C000C943C000C943C0050
:100040000C943C000C943C000C943C000C943C0040
:100050000C943C0011241FBECFE5D4E0DEBFCDBF21
:1000600010E0A0E6B0E001C01D92A236B107E1F7B2
:100070000E94A8000C94D2000C9400001F920F92D2
:100080000FB60F9211242F938F939F93809160004E
:10009000909161000196909361008093600080913F
:1000A000600090916100883F910519F482E593E02A
:1000B00002C083E490E09BBD8ABD80916000909176
:1000C00061008630914021F410926100109260002E
:1000D0009F918F912F910F900FBE0F901F901895A9
:1000E0001F920F920FB60F9211242F938F939F930D
:1000F00080EE8ABB23E12A95F1F7000080EF8ABBEE
:100100008091600090916100803F910518F080EF30
:100110008ABB16C08091600090916100449724E0F2
:10012000969587952A95E1F706C08ABB29E02A951E
:10013000F1F700C040968F3F9105B9F3B0F3E7CFD8
:100140009F918F912F910F900FBE0F901F90189538
:1001500080EF8ABB8FE08BBB8F9A979883ED9BE8EB
:100160000197F1F70000979A8D9A8FB5826C8FBD39
:100170008EB588618EBD1DBC1CBC8EE390E09BBD1E
:100180008ABD81E090E099BD88BD8DE893E097BD80
:1001900086BD89B7886189BF8EB581608EBD789430
:0801A0008895FECFF894FFCF13
:00000001FF
