:100000000C942A000C943C000C943C000C943C0092
:100010000C943C000C943C000C9478000C943E0032
:100020000C943C000C943C000C943C000C943C0060
:100030000C943C000C943C000C943C000C943C0050
:100040000C943C000C943C000C943C000C943C0040
:100050000C943C0011241FBECFE5D4E0DEBFCDBF21
:1000600010E0A0E6B0E001C01D92A236B107E1F7B2
:100070000E94C6000C94F1000C9400001F920F9295
:100080000FB60F9211242F938F939F93809160004E
:10009000909161000196909361008093600080913F
:1000A000600090916100883F910539F482E593E00A
:1000B0009BBD8ABD8BE893E006C083E490E09BBDC6
:1000C0008ABD8DE893E097BD86BD809160009091D8
:1000D00061008650914021F41092610010926000FE
:1000E0009F918F912F910F900FBE0F901F90189599
:1000F0001F920F920FB60F9211242F933F938F935D
:100100009F9380EE8ABB8EE08A95F1F70CB50A5872
:10011000013000F0023000F0033000F0043000F055
:10012000053000F0063000F0073000F0083000F035
:10013000093000F00A3000F0809160009091610079
:10014000803F9105C0F489E08A95F1F780916000C5
:1001500090916100449724E0969587952A95E1F760
:1001600039E005C08ABB232F2A95F1F740968F3FCF
:100170009105C1F3B8F380EF8ABB9F918F913F91B6
:100180002F910F900FBE0F901F90189580EF8ABB94
:100190008FE08BBB8F9A979883ED9BE80197F1F7DF
:1001A000979A8D9A8FB5826C8FBD8EB588618EBD02
:1001B0001DBC1CBC8EE390E09BBD8ABD81E090E03D
:1001C00099BD88BD8DE893E097BD86BD89B78861EC
:1001D00089BF8EB581608EBD78940000000000005C
:0601E000FCCFF894FFCFF4
:00000001FF
